:020000040800F2
:100000006F00E00E6F00A00E6F00600E6F00200EFC
:100010006F00E00D6F00A00D6F00600D6F00200DF0
:100020006F00E00C6F00A00C6F00600C6F00200CE4
:100030006F00E00B6F00A00B6F00600B6F00200BD8
:100040006F0000276F00A00A6F00600A6F00200A8F
:100050006F0020136F00A0096F0060096F00200976
:100060006F00E0086F00A0086F0060086F002008B4
:100070006F00E0076F00A0076F0060076F002007A8
:100080006F00C0006F00A0066F0060061701020835
:10009000130141F7970C0000938C0C2E170D0108EB
:1000A000130D4DF6970D0108938D4DF7635ABD0161
:1000B00003AE0C002320CD01910C110DE3DAADFF4E
:1000C000170D0108130D8DF5970D0108938DCD02C5
:1000D0006357BD0123200D00110DE3DDADFF1305B6
:1000E000000093050000EF0000066F00400001A033
:1000F00097070108938787F3AA9783C7070085C7E7
:1001000097070108938787F1AA9783C7070089EFAC
:1001100017070108130707EF831727006355F0003F
:10012000ED172311F70082800547E39EE7FE1707CE
:100130000108130727ED831727009306F017E3C480
:10014000F6FE9507F9BF411106C622C426C28147B3
:1001500097050108938585EC4147B386F50013F6B2
:1001600017002380C6008507E399E7FEC1440144D8
:100170001375F40F0504AD3FE31C94FE2945C52813
:10018000FDB741113AC232C636C43EC0370702112C
:100190001C478583858BB1CB5C438583858BB1C739
:1001A000970701089387C7F3144390431707010883
:1001B0001307C7E893F6F60F32972300D700170707
:1001C00001081307A7F11043F54663C0C602944324
:1001D000850694C31443850614C39843FD4763D62C
:1001E000E7009707010823AD07EEB707021198470C
:1001F0000983058B1DC7D8430983058B1DC31707CA
:1002000001081307A7EE170601080326E6ED1443BD
:100210006310D60217070108232607EC98476D9B49
:1002200098C73246A24612478247410173002030E8
:1002300010439306160014C397060108938606E23E
:10024000B29683C6060093F6F60F94C3970601088C
:10025000938646E99C42FD179CC218439307F0071A
:10026000E3D1E7FC9707010823A207E85DBF371732
:1002700001111C4B060593E787001CCBB7870111C2
:100280009847799B98C7D843759BD8C3196723A013
:1002900007001307771AD8C788CB9847136717004A
:1002A00098C7378701115C438583858BEDDF82809A
:1002B00039713ECC06DE16DC1ADA1ED82AD62ED4C8
:1002C00032D236D03ACE42CA46C872C676C47AC254
:1002D0007EC0B7870111DC438583858B85C3970773
:1002E000010883A7E7E091C717050108032585E00A
:1002F0008297378701115C43F59B5CC3F250E25251
:100300005253C2533255A255125682567247E24793
:100310005248C248324EA24E124F824F21617300A2
:10032000203000001000000000000000037A52009E
:10033000017C01011B0D02001000000018000000EC
:10034000000000000000000000000000100000009D
:1003500000000000037A5200017C01011B0D020025
:100360001000000018000000000000000000000065
:040370000000000089
:100374006400F0005F005F00BD01F0005F005F00FB
:080384004001F0005F005F0082
:0400000508000000EF
:00000001FF
